:03800000028502F4
:0C850200787FE4F6D8FD75814C028549B5
:10888E00909111E493547F75AEDD75A35575A45484
:10889E0075AA0A44807830F278107403F27812E4E4
:1088AE00F27816741FF27F017E00128B8090913643
:1088BE00E493B479137825E254E0F2E2FF90912329
:0888CE00E493541FFEEF4EF28B
:0188D600227F
:10817B007D207F1D128C0B128C567D8BE4FF128C95
:10818B000B7F037E00128B807DA87F03128C0B7FED
:10819B00027E00128B807D107F1D128C0B7F0112D3
:1081AB008B1E7D247F1F128C0BE4FF128B1E128CF7
:1081BB00517F017E00128B80128C567F06128C250C
:1081CB00EF30E5F77D407F06128C0B7F01128B1E83
:1081DB007527757526987525207B007A007925758E
:1081EB002E037F03128A897527057526A075250333
:1081FB007B007A007925752E037F13128A897526E9
:10820B00B27525CF7B007A007925752E027F1C1263
:10821B008A8975271175260475251F7B007A0079CD
:10822B0025752E037F1E128A89E4FF128B1E75257E
:10823B004675264F7527477528497529437B007A64
:10824B00007925752E057F0A128A897525467526B4
:10825B004F7527477528497529437B007A00792587
:10826B00752E057F10128A89128C43128C5B028C3F
:01827B0060A2
:058C51007FD5028C3B01
:058C56007FD6028C3BFB
:028B1E008F2A9C
:108B20007F07128C258F2BE52A6007E52B20E70EA7
:0E8B30008005E52B30E7077D537F50128BEE5A
:018B3E002214
:078C43007D707F07028C0B1E
:058C5B007FE1028C3BEB
:058C60007FE2028C3BE5
:028A01008F489C
:108A0300E4FF128C258F49E54860055349FE800336
:108A1300434901AD49E4FF128C0BE548B402107FD2
:0F8A230006128C25EF4480F549FD7F06128C0B5F
:018A32002221
:088B60008F258B268A27892846
:108B68007F07128C25EF20E00EAB26AA27A92885BF
:078B7800292EAF25128A89A6
:018B7F0022D3
:068744008B348A358936F2
:10874A007F07128C258F37E53730E6347F60128C2D
:10875A00258F38E538D394205010AB34AA35A93682
:10876A0085383D7F61128A338003128C607F17122D
:10877A008C25EF30E0D6AD377F07128C0BAF38224D
:0F878A00E53754706007AD377F07128C0B7F0007
:0187990022BD
:028B3F008F4A5B
:108B41007F06128C258F4BE54A14600804700F5381
:0E8B51004BF78003434B08AD4B7F06128C0B95
:018B5F0022F3
:0E8BFD00AD07EDC3948050057F05128C0B224E
:1088D7007854E2540FF2E24450F27852E2540FF225
:1088E70018E24404F208E244A0F2E254FCF2E24443
:1088F70001F27850E24401F27808E254FBF278136F
:10890700E24404F27808E24404F275F20743F10501
:03891700D28022E9
:068BB000C280EF4420FF2B
:108BB600E5F430E0FB53F1DF8FF3E5F430E0FB2220
:108BDB00E5F430E0FB43F12075F301E5F430E0FB05
:038BEB00AFF322C3
:0D8C0B00AE05128BB0AF06128BB6D28022E0
:0A8C2500C280128BB6128BDBD280E6
:018C2F002222
:068A89008B2B8A2C892DC5
:108A8F00128BB0E4FEEEC3952E5015AB2BAA2CA97A
:108A9F002D8E82758300128394FF128BB60E80E5A4
:028AAF00D28073
:018AB10022A2
:068A33008B3A8A3B893CEE
:108A3900C280128BB6E4FEEEC3953D5015128BDB56
:108A4900AB3AAA3BA93C8E82758300EF1283C10E13
:048A590080E5D28062
:018A5D0022F6
:088C3B00C280128BB6D2802228
:0F8BEE00AE05C280128BB6AF06128BB6D28022B4
:0B8C3000EF1FAC0670011E4C70F62216
:108B8000AB07AA06EB1BAE0270011A4E60097F7E8E
:088B90007E06128C3080ED22FC
:0D8C1800E5F730E4FB8FFAE5F730E4FB22CE
:108AFC00E4F54C7862E2543FF2E24480F27864E2AE
:108B0C0044C0F2E5F730E4FB75F90175F81475F61D
:018B1C001048
:018B1D002235
:108AB2008B428A438944AB42AA43A94412837B6016
:108AC200130544E5447002054314F912837BFF1237
:058AD2008C1880E22277
:068AD7008B258A26892789
:108ADD00E4FFFEEEC39D5013AB25AA26A9278E8277
:0E8AED0075830012839462070E80E8EFF4FF99
:018AFB002258
:1089CB00E4754114754001F53FF53E7862E2543F82
:1089DB00F2E24480F27864E244C0F2E5F730E4FB63
:1089EB00AF41AE40AD3FAC3E780812844A8FF9855B
:0589FB0041F875F610C3
:018A00002253
:068A5E008B458A468947A2
:108A6400E4FFEFC39D501DE5F730E4FBAB45AA4698
:108A7400A9478F82758300128394F5FAE5F730E4F1
:048A8400FB0F80DE86
:018A880022CB
:108B98000A00000A0400080800000A00000806008D
:088BA800000A05000A0A00059D
:068C4A00012300012200DD
:09858E0075F00584F526FBFDFFE4
:068597008F2F8D308B31A7
:10859D00E4F532E532C3952F5003C38001D39285A4
:1085AD00E532C395305003C38001D39281E532C3C8
:1085BD0095315003C38001D392867F017E00128BCB
:0485CD008030953332
:1085D100E4F5337F017E00128B8030952F0533E562
:1085E10033C3945040ED3095097F057E00128B8096
:1085F10080F47F327E00128B80D285D281D2867543
:0386010022012231
:098604000532E532C3940A4093EB
:01860D00224A
:108957008D30AA07E530C39A4017ED9FFFE49400D6
:10896700FEEBFD7C001283E3AD321283F5EF2AFFA5
:1089770022EAC39530FFE49400FEAD037C00128326
:0B898700E3AD321283F5C3EA9FFF222C
:0687F0008F278D288B2964
:1087F600E4F52EE52EC3952D503CE5226003AF2E01
:1088060022852D32AB2EAD2AAF27128957C0078598
:108816002D32AB2EAD2BAF28128957A907852D32E5
:10882600AB2EAD2CAF29128957AB07AD01D007127D
:088836008597052E80BDAF2DD2
:01883E002217
:02879A008F242A
:10879C00E4F525F526E522704AE52475F003A424BA
:1087AC0098F582E4348BF583E493FFE52475F003AC
:1087BC00A42499F582E4348BF583E493FDE52475C8
:1087CC00F003A4249AF582E4348BF583E493FB1232
:1087DC0085970526E52670020525C394F4E52594B6
:0387EC000140B297
:0187EF002267
:10860E00E4F524F525C3E52594F4E5249401505AA8
:10861E00E5227056F527E527C394325020C3E52591
:10862E0094F4E52494015015E5227011E527128586
:10863E008E05270525E52570DD052480D9E4F5276F
:10864E00E527C3943250BEC3E52594F4E524940186
:10865E0050B3E52270AFC37431952712858E05276E
:0A866E000525E52570DA052480D605
:0186780022DF
:10800300E4F527F528F524C3E52894F4E52794013E
:10801300400302817AE522600302817AF525E52592
:10802300C3943240030280C7C3E52894F4E5279440
:108033000140030280C7E52260030280C7E525757E
:10804300F00584F526E52475F003A42498F582E46D
:10805300348BF583E493FF7E00AD267C001283E32B
:108063007D0A1283F5AA07C002E52475F003A42450
:1080730099F582E4348BF583E493FF7E00AD267C8F
:10808300001283E37D0A1283F5AA07E52475F00342
:10809300A4249AF582E4348BF583E493FF7E00AD48
:1080A300267C001283E37D0A1283F5AB07AD02D071
:1080B3000712859705250528E52860030280210519
:1080C30027028021E4F525E525C39432400302818C
:1080D30070C3E52894F4E52794014003028170E519
:1080E300226003028170C37431952575F00584F510
:1080F30026E52475F003A42498F582E4348BF583F4
:10810300E493FF7E00AD267C001283E37D0A128395
:10811300F5AA07C002E52475F003A42499F582E4C7
:10812300348BF583E493FF7E00AD267C001283E35A
:108133007D0A1283F5AA07E52475F003A4249AF5B2
:1081430082E4348BF583E493FF7E00AD267C00123A
:1081530083E37D0A1283F5AB07AD02D0071285973F
:1081630005250528E528700205270280CAE52404B1
:078173005407F52402800A05
:01817A0022E2
:10845D00E4F525F526FEC3E52694F4E525940140C3
:10846D0003028501E5226003028501EE045407F540
:10847D0024EE75F003A42498F582E4348BF583E49F
:10848D0093FFEE75F003A42499F582E4348BF58304
:10849D00E493FDEE75F003A4249AF582E4348BF594
:1084AD0083E493FBE52475F003A42498F582E4346A
:1084BD008BF583E493FEE52475F003A42499F582EE
:1084CD00E4348BF583E493FCE52475F003A4249A3E
:1084DD00F582E4348BF583E493F52C8C2B8E2A7581
:1084ED002D3F1287F0EF2526F526E43525F525AE2F
:0484FD00240284636E
:018501002257
:10867900E523B40B005058908687F82828730286A2
:10868900A80286AC0286B00286B40286B80286BC0D
:108699000286C00286C40286CB0286D00286D5E451
:1086A900FF801A7F0180167F0280127F03800E7F70
:1086B90004800A7F0580067F0680027F0712879A59
:1086C900800D12860E8008128003800312845DD209
:0686D90085D281D2862249
:1089920012817B7D107F1D128C0BE4FD7F01128CF6
:1089A2000B7DFAE4FF128C0B7D107F11128C0B7D74
:1089B200437F05128C0B7D037F02128C0B128C5BA2
:0989C200128C60128C43028C56E9
:108BC600751246E4F5137F0C7814E4F608DFFCE42E
:048BD600F520F52170
:018BDA002278
:10883F000513EF4410F5207B007A0079127D0F129B
:10884F008AD78F21E4F524128C5B128C437B007A3C
:10885F000079127529107FA0128B60128C517F0244
:10886F007E00128B80128C56128C5B128C437F020F
:0E887F007E00128B800524E524C3940540C9B9
:01888D0022C8
:1086DF007852E254F3F2E24404F208E254C3F2E2B5
:1086EF004414F27862E2543FF27860E254DFF20809
:1086FF00E24420F27850E2549DF2785BE24462F259
:10870F00D285D281D2867852E2F50E08E2F5107842
:10871F0062E2F50F08E2F5117850E2F5087860E2B1
:10872F00F5097854E2F50A08E2F50C7864E2F50BE6
:05873F0008E2F50D2227
:10827C00D285D281D2867D207F1D128C0B7DA97F69
:10828C0003128C0B7F027E00128B80785274FFF2EB
:10829C0008F27862F208F2E254F3F2E24408F2785F
:1082AC0065E2440CF27861E24420F275ACFF75ABE8
:1082BC000243BE40782AE2440CF2780B74FFF27849
:1082CC0025E2541FF253BAFC7822E254C7F278101C
:1082DC00E254FCF2E4F5A47830E2547FF27820E228
:1082EC00549FF243BE017825E24460F275ACFF78EE
:1082FC0020E24460F27830E24480F275A4547810A5
:10830C00E24403F243BA037852E50EF208E510F2A8
:10831C007862E50FF208E511F27850E508F2786022
:10832C00E509F27854E50AF208E50CF27864E50BFD
:10833C00F208E50DF21288D71289927F327E001274
:02834C008B8024
:10834E00E4F5247F017E00128B8020950302827C4F
:09835E000524E524C3946440EAFF
:108367003095097F057E00128B8080F47F507E0058
:04837700128B8022C3
:10891A0012888E1288D71286DF128992128BC6D2DB
:10892A0085D281D28612827CE4F522E5232401FFD6
:10893A00E433FE7C007D0B1283F58D237F031288BE
:0D894A003F128679E52270E012827C80DB0E
:10850E0002891AE493A3F8E493A34003F68001F2E0
:10851E0008DFF48029E493A3F85407240CC8C3336E
:10852E00C4540F4420C8834004F456800146F6DF3D
:10853E00E4800B0102040810204080908C4AE47EF7
:10854E00019360BCA3FF543F30E509541FFEE49332
:10855E00A360010ECF54C025E060A840B8E493A3F9
:10856E00FAE493A3F8E493A3C8C582C8CAC583CA24
:10857E00F0A3C8C582C8CAC583CADFE9DEE780BEDC
:018C50000023
:10837B00BB010689828A83E0225002E722BBFE0200
:09838B00E32289828A83E4932233
:10839400BB010CE58229F582E5833AF583E022509E
:1083A40006E92582F8E622BBFE06E92582F8E222E8
:0D83B400E58229F582E5833AF583E4932202
:1083C100F8BB010DE58229F582E5833AF583E8F0F2
:1083D100225006E92582C8F622BBFE05E92582C89E
:0283E100F22286
:1083E300EF8DF0A4A8F0CF8CF0A428CE8DF0A42EAE
:0283F300FE2268
:1083F500BC000BBE0029EF8DF084FFADF022E4CC6C
:10840500F875F008EF2FFFEE33FEEC33FCEE9DEC34
:10841500984005FCEE9DFE0FD5F0E9E4CEFD22ED7A
:10842500F8F5F0EE8420D21CFEADF075F008EF2FC4
:10843500FFED33FD4007985006D5F0F222C398FDB5
:058445000FD5F0EA2252
:10844A00E8600FECC313FCED13FDEE13FEEF13FF10
:03845A00D8F12234
:00000001FF
