:03800000028502F4
:0C850200787FE4F6D8FD75814C028549B5
:10887F00909111E493547F75AEDD75A35575A45493
:10888F0075AA0A44807830F278107403F27812E4F3
:10889F00F27816741FF27F017E00128B7190913661
:1088AF00E493B479137825E254E0F2E2FF90912338
:0888BF00E493541FFEEF4EF29A
:0188C700228E
:10817B007D207F1D128BFC128C477D8BE4FF128BB5
:10818B00FC7F037E00128B717DA87F03128BFC7F1B
:10819B00027E00128B717D107F1D128BFC7F0112F2
:1081AB008B0F7D247F1F128BFCE4FF128B0F128C25
:1081BB00427F017E00128B71128C477F06128C1648
:1081CB00EF30E5F77D407F06128BFC7F01128B0FA2
:1081DB007527757526987525207B007A007925758E
:1081EB002E037F03128A7A7527057526A075250342
:1081FB007B007A007925752E037F13128A7A7526F8
:10820B00B27525CF7B007A007925752E027F1C1263
:10821B008A7A75271175260475251F7B007A0079DC
:10822B0025752E037F1E128A7AE4FF128B0F75259C
:10823B004675264F7527477528497529437B007A64
:10824B00007925752E057F0A128A7A7525467526C3
:10825B004F7527477528497529437B007A00792587
:10826B00752E057F10128A7A128C34128C4C028C6C
:01827B0051B1
:058C42007FD5028C2C1F
:058C47007FD6028C2C19
:028B0F008F2AAB
:108B11007F07128C168F2BE52A6007E52B20E70EC5
:0E8B21008005E52B30E7077D537F50128BDF78
:018B2F002223
:078C34007D707F07028BFC3D
:058C4C007FE1028C2C09
:058C51007FE2028C2C03
:0289F2008F48AC
:1089F400E4FF128C168F49E54860055349FE800355
:108A0400434901AD49E4FF128BFCE548B402107FF1
:0F8A140006128C16EF4480F549FD7F06128BFC8D
:018A23002230
:088B51008F258B268A27892855
:108B59007F07128C16EF20E00EAB26AA27A92885DD
:078B6900292EAF25128A7AC4
:018B700022E2
:068735008B348A35893601
:10873B007F07128C168F37E53730E6347F60128C4B
:10874B00168F38E538D394205010AB34AA35A936A0
:10875B0085383D7F61128A248003128C517F17125A
:10876B008C16EF30E0D6AD377F07128BFCAF38227B
:0F877B00E53754706007AD377F07128BFC7F0026
:01878A0022CC
:028B30008F4A6A
:108B32007F06128C168F4BE54A14600804700F539F
:0E8B42004BF78003434B08AD4B7F06128BFCB4
:018B50002202
:0E8BEE00AD07EDC3948050057F05128BFC226D
:1088C8007854E2540FF2E24450F27852E2540FF234
:1088D80018E24404F208E244A0F2E254FCF2E24452
:1088E80001F27850E24401F27808E254FBF278137E
:1088F800E24404F27808E24404F275F20743F10511
:03890800D28022F8
:068BA100C280EF4420FF3A
:108BA700E5F430E0FB53F1DF8FF3E5F430E0FB222F
:108BCC00E5F430E0FB43F12075F301E5F430E0FB14
:038BDC00AFF322D2
:0D8BFC00AE05128BA1AF06128BA7D280220E
:0A8C1600C280128BA7128BCCD28013
:018C20002231
:068A7A008B2B8A2C892DD4
:108A8000128BA1E4FEEEC3952E5015AB2BAA2CA998
:108A90002D8E82758300128394FF128BA70E80E5C2
:028AA000D28082
:018AA20022B1
:068A24008B3A8A3B893CFD
:108A2A00C280128BA7E4FEEEC3953D5015128BCC83
:108A3A00AB3AAA3BA93C8E82758300EF1283C10E22
:048A4A0080E5D28071
:018A4E002205
:088C2C00C280128BA7D2802246
:0F8BDF00AE05C280128BA7AF06128BA7D28022E1
:0B8C2100EF1FAC0670011E4C70F62225
:108B7100AB07AA06EB1BAE0270011A4E60097F7E9D
:088B81007E06128C2180ED221A
:0D8C0900E5F730E4FB8FFAE5F730E4FB22DD
:108AED00E4F54C7862E2543FF2E24480F27864E2BD
:108AFD0044C0F2E5F730E4FB75F90175F81475F62D
:018B0D001057
:018B0E002244
:108AA3008B428A438944AB42AA43A94412837B6025
:108AB300130544E5447002054314F912837BFF1246
:058AC3008C0980E22295
:068AC8008B258A26892798
:108ACE00E4FFFEEEC39D5013AB25AA26A9278E8286
:0E8ADE0075830012839462070E80E8EFF4FFA8
:018AEC002267
:1089BC00E4754114754001F53FF53E7862E2543F91
:1089CC00F2E24480F27864E244C0F2E5F730E4FB72
:1089DC00AF41AE40AD3FAC3E780812844A8FF9856A
:0589EC0041F875F610D2
:0189F1002263
:068A4F008B458A468947B1
:108A5500E4FFEFC39D501DE5F730E4FBAB45AA46A7
:108A6500A9478F82758300128394F5FAE5F730E400
:048A7500FB0F80DE95
:018A790022DA
:108B89000A00000A0400080800000A00000806009C
:088B9900000A05000A0A0005AC
:068C3B00012300012200EC
:09858E0075F00584F526FBFDFFE4
:068597008F2F8D308B31A7
:10859D00E4F532E532C3952F50028001C39285E593
:1085AD0032C3953050028001C39281E532C39531BB
:1085BD0050028001C392867F017E00128B7130952F
:0185CD00337A
:1085CE00E4F5337F017E00128B7130952F0533E574
:1085DE0033C3945040ED3095097F057E00128B71A8
:1085EE0080F47F327E00128B71C285C281C2867585
:0385FE0022012235
:098601000532E532C3940A4096EB
:01860A00224D
:108948008D30AA07E530C39A4017ED9FFFE49400E5
:10895800FEEBFD7C001283E3AD321283F5EF2AFFB4
:1089680022EAC39530FFE49400FEAD037C00128335
:0B897800E3AD321283F5C3EA9FFF223B
:0687E1008F278D288B2973
:1087E700E4F52EE52EC3952D503CE5226003AF2E10
:1087F70022852D32AB2EAD2AAF27128948C00785B7
:108807002D32AB2EAD2BAF28128948A907852D3203
:10881700AB2EAD2CAF29128948AB07AD01D007129B
:088827008597052E80BDAF2DE1
:01882F002226
:02878B008F2439
:10878D00E4F525F526E522704AE52475F003A424C9
:10879D0089F582E4348BF583E493FFE52475F003CA
:1087AD00A4248AF582E4348BF583E493FDE52475E6
:1087BD00F003A4248BF582E4348BF583E493FB1250
:1087CD0085970526E52670020525C394F4E52594C5
:0387DD000140B2A6
:0187E0002276
:10860B00E4F524F525C3E52594F4E5249401505AAB
:10861B00E5227056F527E527C394325020C3E52594
:10862B0094F4E52494015015E5227011E527128589
:10863B008E05270525E52570DD052480D9E4F52772
:10864B00E527C3943250BEC3E52594F4E524940189
:10865B0050B3E52270AFC37431952712858E052771
:0A866B000525E52570DA052480D608
:0186750022E2
:10800300E4F527F528F524C3E52894F4E52794013E
:10801300400302817AE522600302817AF525E52592
:10802300C3943240030280C7C3E52894F4E5279440
:108033000140030280C7E52260030280C7E525757E
:10804300F00584F526E52475F003A42489F582E47C
:10805300348BF583E493FF7E00AD267C001283E32B
:108063007D0A1283F5AA07C002E52475F003A42450
:108073008AF582E4348BF583E493FF7E00AD267C9E
:10808300001283E37D0A1283F5AA07E52475F00342
:10809300A4248BF582E4348BF583E493FF7E00AD57
:1080A300267C001283E37D0A1283F5AB07AD02D071
:1080B3000712859705250528E52860030280210519
:1080C30027028021E4F525E525C39432400302818C
:1080D30070C3E52894F4E52794014003028170E519
:1080E300226003028170C37431952575F00584F510
:1080F30026E52475F003A42489F582E4348BF58303
:10810300E493FF7E00AD267C001283E37D0A128395
:10811300F5AA07C002E52475F003A4248AF582E4D6
:10812300348BF583E493FF7E00AD267C001283E35A
:108133007D0A1283F5AA07E52475F003A4248BF5C1
:1081430082E4348BF583E493FF7E00AD267C00123A
:1081530083E37D0A1283F5AB07AD02D0071285973F
:1081630005250528E528700205270280CAE52404B1
:078173005407F52402800A05
:01817A0022E2
:10845D00E4F525F526FEC3E52694F4E525940140C3
:10846D0003028501E5226003028501EE045407F540
:10847D0024EE75F003A42489F582E4348BF583E4AE
:10848D0093FFEE75F003A4248AF582E4348BF58313
:10849D00E493FDEE75F003A4248BF582E4348BF5A3
:1084AD0083E493FBE52475F003A42489F582E43479
:1084BD008BF583E493FEE52475F003A4248AF582FD
:1084CD00E4348BF583E493FCE52475F003A4248B4D
:1084DD00F582E4348BF583E493F52C8C2B8E2A7581
:1084ED002D3F1287E1EF2526F526E43525F525AE3E
:0484FD00240284636E
:018501002257
:10867600E523B40B005058908684F82828730286A8
:10868600A50286A90286AD0286B10286B50286B922
:108696000286BD0286C10286C80286CD0286D2E463
:1086A600FF801A7F0180167F0280127F03800E7F73
:1086B60004800A7F0580067F0680027F0712878B6B
:1086C600800D12860B8008128003800312845DC21F
:0686D60085C281C286226C
:1089830012817B7D107F1D128BFCE4FD7F01128B16
:10899300FC7DFAE4FF128BFC7D107F11128BFC7DB2
:1089A300437F05128BFC7D037F02128BFC128C4CE0
:0989B300128C51128C34028C4725
:108BB700751246E4F5137F0C7814E4F608DFFCE43D
:048BC700F520F5217F
:018BCB002287
:108830000513EF4410F5207B007A0079127D0F12AA
:108840008AC88F21E4F524128C4C128C347B007A78
:108850000079127529107FA0128B51128C427F0271
:108860007E00128B71128C47128C4C128C347F025A
:0E8870007E00128B710524E524C3940540C9D7
:01887E0022D7
:1086DC007852E254F3F2E24404F208E254C3F2E2B8
:1086EC004414F27862E2543FF27860E254DFF2080C
:1086FC00E24420F2C285C281C2867852E2F50E08AD
:10870C00E2F5107862E2F50F08E2F5117850E2F527
:10871C00087860E2F5097854E2F50A08E2F50C787D
:09872C0064E2F50B08E2F50D22F0
:10827C00C285C281C2867D207F1D128BFC7DA97FA9
:10828C0003128BFC7F027E00128B71785274FFF20A
:10829C0008F27862F208F2E254F3F2E24408F2785F
:1082AC0065E2440CF27861E24420F275ACFF75ABE8
:1082BC000243BE40782AE2440CF2780B74FFF27849
:1082CC0025E2541FF253BAFC7822E254C7F278101C
:1082DC00E254FCF2E4F5A47830E2547FF27820E228
:1082EC00549FF243BE017825E24460F275ACFF78EE
:1082FC0020E24460F27830E24480F275A4547810A5
:10830C00E24403F243BA037852E50EF208E510F2A8
:10831C007862E50FF208E511F27850E508F2786022
:10832C00E509F27854E50AF208E50CF27864E50BFD
:10833C00F208E50DF21288C81289837F327E001292
:02834C008B7133
:10834E00E4F5247F017E00128B7120950302827C5E
:09835E000524E524C3946440EAFF
:108367003095097F057E00128B7180F47F507E0067
:04837700128B7122D2
:10890B0012887F1288C81286DC128983128BB7C239
:10891B0085C281C28612827CE4F522E5232401FF05
:10892B00E433FE7C007D0B1283F58D237F031288CD
:0D893B0030128676E52270E012827C80DB2F
:10850E0002890BE493A3F8E493A34003F68001F2EF
:10851E0008DFF48029E493A3F85407240CC8C3336E
:10852E00C4540F4420C8834004F456800146F6DF3D
:10853E00E4800B0102040810204080908C3BE47E06
:10854E00019360BCA3FF543F30E509541FFEE49332
:10855E00A360010ECF54C025E060A840B8E493A3F9
:10856E00FAE493A3F8E493A3C8C582C8CAC583CA24
:10857E00F0A3C8C582C8CAC583CADFE9DEE780BEDC
:018C41000032
:10837B00BB010689828A83E0225002E722BBFE0200
:09838B00E32289828A83E4932233
:10839400BB010CE58229F582E5833AF583E022509E
:1083A40006E92582F8E622BBFE06E92582F8E222E8
:0D83B400E58229F582E5833AF583E4932202
:1083C100F8BB010DE58229F582E5833AF583E8F0F2
:1083D100225006E92582C8F622BBFE05E92582C89E
:0283E100F22286
:1083E300EF8DF0A4A8F0CF8CF0A428CE8DF0A42EAE
:0283F300FE2268
:1083F500BC000BBE0029EF8DF084FFADF022E4CC6C
:10840500F875F008EF2FFFEE33FEEC33FCEE9DEC34
:10841500984005FCEE9DFE0FD5F0E9E4CEFD22ED7A
:10842500F8F5F0EE8420D21CFEADF075F008EF2FC4
:10843500FFED33FD4007985006D5F0F222C398FDB5
:058445000FD5F0EA2252
:10844A00E8600FECC313FCED13FDEE13FEEF13FF10
:03845A00D8F12234
:00000001FF
